{
  "contractName": "KingDice",
  "abi": [
    {
      "inputs": [],
      "stateMutability": "nonpayable",
      "type": "constructor"
    },
    {
      "anonymous": false,
      "inputs": [
        {
          "indexed": true,
          "internalType": "address",
          "name": "sender",
          "type": "address"
        },
        {
          "indexed": false,
          "internalType": "bytes32",
          "name": "requestId",
          "type": "bytes32"
        }
      ],
      "name": "Request",
      "type": "event"
    },
    {
      "anonymous": false,
      "inputs": [
        {
          "indexed": true,
          "internalType": "address",
          "name": "sender",
          "type": "address"
        },
        {
          "indexed": false,
          "internalType": "uint256",
          "name": "bid",
          "type": "uint256"
        },
        {
          "indexed": false,
          "internalType": "bool",
          "name": "success",
          "type": "bool"
        }
      ],
      "name": "Result",
      "type": "event"
    },
    {
      "inputs": [
        {
          "internalType": "bytes32",
          "name": "",
          "type": "bytes32"
        }
      ],
      "name": "nonces",
      "outputs": [
        {
          "internalType": "uint256",
          "name": "",
          "type": "uint256"
        }
      ],
      "stateMutability": "view",
      "type": "function"
    },
    {
      "inputs": [
        {
          "internalType": "bytes32",
          "name": "requestId",
          "type": "bytes32"
        },
        {
          "internalType": "uint256",
          "name": "randomness",
          "type": "uint256"
        }
      ],
      "name": "rawFulfillRandomness",
      "outputs": [],
      "stateMutability": "nonpayable",
      "type": "function"
    },
    {
      "inputs": [
        {
          "internalType": "bytes32",
          "name": "",
          "type": "bytes32"
        }
      ],
      "name": "requestDetails",
      "outputs": [
        {
          "internalType": "address payable",
          "name": "sender",
          "type": "address"
        },
        {
          "internalType": "uint256",
          "name": "choice",
          "type": "uint256"
        },
        {
          "internalType": "uint256",
          "name": "totalChoices",
          "type": "uint256"
        },
        {
          "internalType": "uint256",
          "name": "bid",
          "type": "uint256"
        },
        {
          "internalType": "uint256",
          "name": "randomNumber",
          "type": "uint256"
        },
        {
          "internalType": "bool",
          "name": "success",
          "type": "bool"
        },
        {
          "internalType": "bool",
          "name": "fulfilled",
          "type": "bool"
        },
        {
          "internalType": "bool",
          "name": "cancelled",
          "type": "bool"
        }
      ],
      "stateMutability": "view",
      "type": "function"
    },
    {
      "inputs": [
        {
          "internalType": "bytes32",
          "name": "_keyHash",
          "type": "bytes32"
        },
        {
          "internalType": "uint256",
          "name": "_fee",
          "type": "uint256"
        },
        {
          "internalType": "uint256",
          "name": "_seed",
          "type": "uint256"
        }
      ],
      "name": "requestRandomness",
      "outputs": [
        {
          "internalType": "bytes32",
          "name": "requestId",
          "type": "bytes32"
        }
      ],
      "stateMutability": "nonpayable",
      "type": "function"
    },
    {
      "inputs": [
        {
          "internalType": "address payable",
          "name": "_address",
          "type": "address"
        }
      ],
      "name": "setTokenAddress",
      "outputs": [],
      "stateMutability": "nonpayable",
      "type": "function"
    },
    {
      "inputs": [],
      "name": "maxBid",
      "outputs": [
        {
          "internalType": "uint256",
          "name": "",
          "type": "uint256"
        }
      ],
      "stateMutability": "view",
      "type": "function"
    },
    {
      "inputs": [
        {
          "internalType": "uint256",
          "name": "bid",
          "type": "uint256"
        }
      ],
      "name": "choices",
      "outputs": [
        {
          "internalType": "uint256",
          "name": "numberOfChoices",
          "type": "uint256"
        }
      ],
      "stateMutability": "view",
      "type": "function"
    },
    {
      "inputs": [
        {
          "internalType": "uint256",
          "name": "choice",
          "type": "uint256"
        }
      ],
      "name": "roll",
      "outputs": [],
      "stateMutability": "payable",
      "type": "function"
    },
    {
      "inputs": [
        {
          "internalType": "bytes32",
          "name": "requestId",
          "type": "bytes32"
        }
      ],
      "name": "cancelBid",
      "outputs": [],
      "stateMutability": "nonpayable",
      "type": "function"
    }
  ],
  "bytecode": "0x60c060405234801561001057600080fd5b5073dd3782915140c8f3b190b5d67eac6dc5760c46e973a36085f69e2889c224210f603d836748e7dc00888173ffffffffffffffffffffffffffffffffffffffff1660a08173ffffffffffffffffffffffffffffffffffffffff1660601b815250508073ffffffffffffffffffffffffffffffffffffffff1660808173ffffffffffffffffffffffffffffffffffffffff1660601b81525050505033600160006101000a81548173ffffffffffffffffffffffffffffffffffffffff021916908373ffffffffffffffffffffffffffffffffffffffff1602179055507f6c3699283bda56ad74f6b855546325b68d482e983852a7a82979cc4807b641f460001b60038190555067016345785d8a000060048190555060805160601c60a05160601c611a6b61016260003980610ae55280610c0a525080610357528061049052806105e45280610bce5250611a6b6000f3fe6080604052600436106100865760003560e01c806394985ddd1161005957806394985ddd146101d15780639e317f1214610216578063dc6cfe1014610265578063df7cec28146102c8578063f6fd7fde1461030357610086565b80631f7b4f301461008b57806326a4e8d2146100b957806344a9253c1461010a57806374b11d8a146101a6575b600080fd5b6100b7600480360360208110156100a157600080fd5b8101908080359060200190929190505050610352565b005b3480156100c557600080fd5b50610108600480360360208110156100dc57600080fd5b81019080803573ffffffffffffffffffffffffffffffffffffffff169060200190929190505050610903565b005b34801561011657600080fd5b506101436004803603602081101561012d57600080fd5b81019080803590602001909291905050506109ed565b604051808973ffffffffffffffffffffffffffffffffffffffff1681526020018881526020018781526020018681526020018581526020018415158152602001831515815260200182151581526020019850505050505050505060405180910390f35b3480156101b257600080fd5b506101bb610a7c565b6040518082815260200191505060405180910390f35b3480156101dd57600080fd5b50610214600480360360408110156101f457600080fd5b810190808035906020019092919080359060200190929190505050610ae3565b005b34801561022257600080fd5b5061024f6004803603602081101561023957600080fd5b8101908080359060200190929190505050610bb2565b6040518082815260200191505060405180910390f35b34801561027157600080fd5b506102b26004803603606081101561028857600080fd5b81019080803590602001909291908035906020019092919080359060200190929190505050610bca565b6040518082815260200191505060405180910390f35b3480156102d457600080fd5b50610301600480360360208110156102eb57600080fd5b8101908080359060200190929190505050610dbf565b005b34801561030f57600080fd5b5061033c6004803603602081101561032657600080fd5b8101908080359060200190929190505050611024565b6040518082815260200191505060405180910390f35b6004547f000000000000000000000000000000000000000000000000000000000000000073ffffffffffffffffffffffffffffffffffffffff166370a08231336040518263ffffffff1660e01b8152600401808273ffffffffffffffffffffffffffffffffffffffff16815260200191505060206040518083038186803b1580156103dc57600080fd5b505afa1580156103f0573d6000803e3d6000fd5b505050506040513d602081101561040657600080fd5b8101908080519060200190929190505050101561048b576040517f08c379a00000000000000000000000000000000000000000000000000000000081526004018080602001828103825260158152602001807f4e6f7420656e6f756768204c494e4b2066756e6473000000000000000000000081525060200191505060405180910390fd5b6004547f000000000000000000000000000000000000000000000000000000000000000073ffffffffffffffffffffffffffffffffffffffff1663dd62ed3e33306040518363ffffffff1660e01b8152600401808373ffffffffffffffffffffffffffffffffffffffff1681526020018273ffffffffffffffffffffffffffffffffffffffff1681526020019250505060206040518083038186803b15801561053357600080fd5b505afa158015610547573d6000803e3d6000fd5b505050506040513d602081101561055d57600080fd5b810190808051906020019092919050505010156105e2576040517f08c379a00000000000000000000000000000000000000000000000000000000081526004018080602001828103825260198152602001807f4e6f7420656e6f756768204c494e4b20616c6c6f77616e63650000000000000081525060200191505060405180910390fd5b7f000000000000000000000000000000000000000000000000000000000000000073ffffffffffffffffffffffffffffffffffffffff166323b872dd33306004546040518463ffffffff1660e01b8152600401808473ffffffffffffffffffffffffffffffffffffffff1681526020018373ffffffffffffffffffffffffffffffffffffffff1681526020018281526020019350505050602060405180830381600087803b15801561069357600080fd5b505af11580156106a7573d6000803e3d6000fd5b505050506040513d60208110156106bd57600080fd5b81019080805190602001909291905050505060006106da34611024565b9050816000111580156106ec57508082105b61075e576040517f08c379a000000000000000000000000000000000000000000000000000000000815260040180806020018281038252600e8152602001807f496e76616c69642063686f69636500000000000000000000000000000000000081525060200191505060405180910390fd5b600061076f60035460045443610bca565b90506040518061010001604052803373ffffffffffffffffffffffffffffffffffffffff16815260200184815260200183815260200134815260200160008152602001600015158152602001600015158152602001600015158152506005600083815260200190815260200160002060008201518160000160006101000a81548173ffffffffffffffffffffffffffffffffffffffff021916908373ffffffffffffffffffffffffffffffffffffffff1602179055506020820151816001015560408201518160020155606082015181600301556080820151816004015560a08201518160050160006101000a81548160ff02191690831515021790555060c08201518160050160016101000a81548160ff02191690831515021790555060e08201518160050160026101000a81548160ff0219169083151502179055509050503373ffffffffffffffffffffffffffffffffffffffff167ff5dc3060b1e8c423c02cc05707c6da125c96442efc26683f42b83fcfa5631972826040518082815260200191505060405180910390a2505050565b600160009054906101000a900473ffffffffffffffffffffffffffffffffffffffff1673ffffffffffffffffffffffffffffffffffffffff163373ffffffffffffffffffffffffffffffffffffffff16146109a9576040517f08c379a00000000000000000000000000000000000000000000000000000000081526004018080602001828103825260218152602001806119f46021913960400191505060405180910390fd5b80600260006101000a81548173ffffffffffffffffffffffffffffffffffffffff021916908373ffffffffffffffffffffffffffffffffffffffff16021790555050565b60056020528060005260406000206000915090508060000160009054906101000a900473ffffffffffffffffffffffffffffffffffffffff16908060010154908060020154908060030154908060040154908060050160009054906101000a900460ff16908060050160019054906101000a900460ff16908060050160029054906101000a900460ff16905088565b6000610ade6063610ad06031600260009054906101000a900473ffffffffffffffffffffffffffffffffffffffff1673ffffffffffffffffffffffffffffffffffffffff16316111f990919063ffffffff16565b61127f90919063ffffffff16565b905090565b7f000000000000000000000000000000000000000000000000000000000000000073ffffffffffffffffffffffffffffffffffffffff163373ffffffffffffffffffffffffffffffffffffffff1614610ba4576040517f08c379a000000000000000000000000000000000000000000000000000000000815260040180806020018281038252601f8152602001807f4f6e6c7920565246436f6f7264696e61746f722063616e2066756c66696c6c0081525060200191505060405180910390fd5b610bae828261130e565b5050565b60006020528060005260406000206000915090505481565b60007f000000000000000000000000000000000000000000000000000000000000000073ffffffffffffffffffffffffffffffffffffffff16634000aea07f000000000000000000000000000000000000000000000000000000000000000085878660405160200180838152602001828152602001925050506040516020818303038152906040526040518463ffffffff1660e01b8152600401808473ffffffffffffffffffffffffffffffffffffffff16815260200183815260200180602001828103825283818151815260200191508051906020019080838360005b83811015610cc3578082015181840152602081019050610ca8565b50505050905090810190601f168015610cf05780820380516001836020036101000a031916815260200191505b50945050505050602060405180830381600087803b158015610d1157600080fd5b505af1158015610d25573d6000803e3d6000fd5b505050506040513d6020811015610d3b57600080fd5b8101908080519060200190929190505050506000610d6d8584306000808a81526020019081526020016000205461178e565b9050610d956001600080888152602001908152602001600020546117f290919063ffffffff16565b60008087815260200190815260200160002081905550610db5858261187a565b9150509392505050565b60006005600083815260200190815260200160002090503373ffffffffffffffffffffffffffffffffffffffff168160000160009054906101000a900473ffffffffffffffffffffffffffffffffffffffff1673ffffffffffffffffffffffffffffffffffffffff1614610e7e576040517f08c379a000000000000000000000000000000000000000000000000000000000815260040180806020018281038252602d8152602001806119c7602d913960400191505060405180910390fd5b600015158160050160019054906101000a900460ff16151514610f09576040517f08c379a00000000000000000000000000000000000000000000000000000000081526004018080602001828103825260158152602001807f42696420616c72656164792066756c66696c6c6564000000000000000000000081525060200191505060405180910390fd5b600015158160050160029054906101000a900460ff16151514610f94576040517f08c379a00000000000000000000000000000000000000000000000000000000081526004018080602001828103825260158152602001807f42696420616c72656164792063616e63656c6c6564000000000000000000000081525060200191505060405180910390fd5b60018160050160026101000a81548160ff0219169083151502179055508060000160009054906101000a900473ffffffffffffffffffffffffffffffffffffffff1673ffffffffffffffffffffffffffffffffffffffff166108fc82600301549081150290604051600060405180830381858888f1935050505015801561101f573d6000803e3d6000fd5b505050565b600080821161109b576040517f08c379a000000000000000000000000000000000000000000000000000000000815260040180806020018281038252600b8152602001807f4e6f206269642073656e7400000000000000000000000000000000000000000081525060200191505060405180910390fd5b816110a4610a7c565b11611117576040517f08c379a00000000000000000000000000000000000000000000000000000000081526004018080602001828103825260138152602001807f4269642065786365656473206d6178696d756d0000000000000000000000000081525060200191505060405180910390fd5b600061118b600261117d6111356031876111f990919063ffffffff16565b600260009054906101000a900473ffffffffffffffffffffffffffffffffffffffff1673ffffffffffffffffffffffffffffffffffffffff16316117f290919063ffffffff16565b6111f990919063ffffffff16565b905060006111db84600260009054906101000a900473ffffffffffffffffffffffffffffffffffffffff1673ffffffffffffffffffffffffffffffffffffffff16316118b390919063ffffffff16565b90506111f0818361127f90919063ffffffff16565b92505050919050565b60008083141561120c5760009050611279565b600082840290508284828161121d57fe5b0414611274576040517f08c379a0000000000000000000000000000000000000000000000000000000008152600401808060200182810382526021815260200180611a156021913960400191505060405180910390fd5b809150505b92915050565b60008082116112f6576040517f08c379a000000000000000000000000000000000000000000000000000000000815260040180806020018281038252601a8152602001807f536166654d6174683a206469766973696f6e206279207a65726f00000000000081525060200191505060405180910390fd5b600082848161130157fe5b0490508091505092915050565b6000600560008481526020019081526020016000209050600073ffffffffffffffffffffffffffffffffffffffff168160000160009054906101000a900473ffffffffffffffffffffffffffffffffffffffff1673ffffffffffffffffffffffffffffffffffffffff1614156113ec576040517f08c379a00000000000000000000000000000000000000000000000000000000081526004018080602001828103825260158152602001807f5265717565737420646f65736e2774206578697374000000000000000000000081525060200191505060405180910390fd5b600015158160050160019054906101000a900460ff16151514611477576040517f08c379a00000000000000000000000000000000000000000000000000000000081526004018080602001828103825260198152602001807f5265717565737420616c72656164792066756c66696c6c65640000000000000081525060200191505060405180910390fd5b600015158160050160029054906101000a900460ff16151514611502576040517f08c379a00000000000000000000000000000000000000000000000000000000081526004018080602001828103825260178152602001807f4269642063616e63656c6c656420627920706c6179657200000000000000000081525060200191505060405180910390fd5b81816004018190555060018160050160016101000a81548160ff02191690831515021790555061153f81600201548361193c90919063ffffffff16565b816001015414156116ae5760018160050160006101000a81548160ff021916908315150217905550600260009054906101000a900473ffffffffffffffffffffffffffffffffffffffff1673ffffffffffffffffffffffffffffffffffffffff1663117de2fd8260000160009054906101000a900473ffffffffffffffffffffffffffffffffffffffff1683600301546040518363ffffffff1660e01b8152600401808373ffffffffffffffffffffffffffffffffffffffff16815260200182815260200192505050600060405180830381600087803b15801561162257600080fd5b505af1158015611636573d6000803e3d6000fd5b505050508060000160009054906101000a900473ffffffffffffffffffffffffffffffffffffffff1673ffffffffffffffffffffffffffffffffffffffff166108fc82600301549081150290604051600060405180830381858888f193505050501580156116a8573d6000803e3d6000fd5b5061171c565b600260009054906101000a900473ffffffffffffffffffffffffffffffffffffffff1673ffffffffffffffffffffffffffffffffffffffff166108fc82600301549081150290604051600060405180830381858888f1935050505015801561171a573d6000803e3d6000fd5b505b3373ffffffffffffffffffffffffffffffffffffffff167fa0867ae7014ecaed5131be35eee4f48954b6ea0ef56a93ea3f1195841bc0fb7882600301548360050160009054906101000a900460ff166040518083815260200182151581526020019250505060405180910390a2505050565b600084848484604051602001808581526020018481526020018373ffffffffffffffffffffffffffffffffffffffff1681526020018281526020019450505050506040516020818303038152906040528051906020012060001c9050949350505050565b600080828401905083811015611870576040517f08c379a000000000000000000000000000000000000000000000000000000000815260040180806020018281038252601b8152602001807f536166654d6174683a206164646974696f6e206f766572666c6f77000000000081525060200191505060405180910390fd5b8091505092915050565b60008282604051602001808381526020018281526020019250505060405160208183030381529060405280519060200120905092915050565b60008282111561192b576040517f08c379a000000000000000000000000000000000000000000000000000000000815260040180806020018281038252601e8152602001807f536166654d6174683a207375627472616374696f6e206f766572666c6f77000081525060200191505060405180910390fd5b600082840390508091505092915050565b6000808214156119b4576040517f08c379a00000000000000000000000000000000000000000000000000000000081526004018080602001828103825260188152602001807f536166654d6174683a206d6f64756c6f206279207a65726f000000000000000081525060200191505060405180910390fd5b8183816119bd57fe5b0690509291505056fe4f6e6c792073656e646572206f66206578697374696e6720726f6c6c2063616e2063616e63656c2061206269644f6e6c79206f776e65722063616e2063616c6c20746869732066756e6374696f6e536166654d6174683a206d756c7469706c69636174696f6e206f766572666c6f77a26469706673582212200bcf7e5c18b14fd094c4e584e32ac7075fe91fc8d9b13ee0ef5a7efbb568cb4064736f6c634300060c0033",
  "immutableReferences": {
    "1765": [
      {
        "length": 32,
        "start": 855
      },
      {
        "length": 32,
        "start": 1168
      },
      {
        "length": 32,
        "start": 1508
      },
      {
        "length": 32,
        "start": 3022
      }
    ],
    "1767": [
      {
        "length": 32,
        "start": 2789
      },
      {
        "length": 32,
        "start": 3082
      }
    ]
  },
  "source": "pragma solidity ^0.6.8;\n\nimport \"./libraries/SafeMath.sol\";\nimport \"./libraries/VRFConsumerBase.sol\";\nimport \"./KETH.sol\";\n\ncontract KingDice is VRFConsumerBase {\n\n    // Ownership and control-related\n    address private owner;\n    KETH internal TokenInterface;\n    \n    bytes32 internal keyHash;\n    uint internal fee;\n\n    constructor() \n        VRFConsumerBase(\n            0xdD3782915140c8f3b190B5D67eAc6dc5760C46E9, // VRF Coordinator\n            0xa36085F69e2889c224210F603D836748e7dC0088  // LINK Token\n        ) public {\n        owner = msg.sender;\n        \n        keyHash = 0x6c3699283bda56ad74f6b855546325b68d482e983852a7a82979cc4807b641f4;\n        fee = 0.1 * 10 ** 18; // 0.1 LINK\n    }\n\n    modifier onlyOwner {\n        require(msg.sender == owner, \"Only owner can call this function\");\n        _;\n    }\n\n    function setTokenAddress(address payable _address) external onlyOwner {\n        TokenInterface = KETH(_address);\n    }\n\n    // Game-related\n\n    struct Details {\n        address payable sender;\n        uint choice;\n        uint totalChoices;\n        uint bid;\n        uint randomNumber;\n        bool success;\n        bool fulfilled;\n        bool cancelled;\n    }\n\n    mapping(bytes32 => Details) public requestDetails;\n\n    event Request (\n        address indexed sender,\n        bytes32 requestId\n    );\n    \n    event Result (\n        address indexed sender,\n        uint bid,\n        bool success\n    );\n\n    function maxBid() public view returns (uint) {\n        return address(TokenInterface).balance.mul(49).div(99);\n    }\n\n    function choices(uint bid) public view returns (uint numberOfChoices) {\n        require(bid > 0, \"No bid sent\");\n        require(maxBid() > bid, \"Bid exceeds maximum\");\n\n        uint numerator = (address(TokenInterface).balance.add(bid.mul(49))).mul(2);\n        uint denominator = address(TokenInterface).balance.sub(bid);\n\n        return numerator.div(denominator);\n    }\n\n    function roll(uint choice) public payable {\n        require(LINK.balanceOf(msg.sender) >= fee, \"Not enough LINK funds\");\n        require(LINK.allowance(msg.sender, address(this)) >= fee, \"Not enough LINK allowance\");\n        LINK.transferFrom(msg.sender, address(this), fee);\n\n        uint totalChoices = choices(msg.value);\n        require(0 <= choice && choice < totalChoices, \"Invalid choice\");\n\n        bytes32 requestId = requestRandomness(keyHash, fee, block.number);\n\n        requestDetails[requestId] = Details(\n            msg.sender,\n            choice,\n            totalChoices,\n            msg.value,\n            0,\n            false,\n            false,\n            false\n        );\n\n        emit Request(msg.sender, requestId);\n    }\n\n    function fulfillRandomness(bytes32 requestId, uint randomness) internal override {\n        Details storage request = requestDetails[requestId]; \n        require(request.sender != address(0), \"Request doesn't exist\");\n        require(request.fulfilled == false, \"Request already fulfilled\");\n        require(request.cancelled == false, \"Bid cancelled by player\");\n        \n        request.randomNumber = randomness;\n        request.fulfilled = true;\n            \n        if (request.choice == randomness.mod(request.totalChoices)) {\n            request.success = true;\n            TokenInterface.payout(request.sender, request.bid);\n            request.sender.transfer(request.bid);\n        } else {\n            address(TokenInterface).transfer(request.bid);\n        }\n        \n        emit Result(msg.sender, request.bid, request.success);\n    }\n    \n    function cancelBid(bytes32 requestId) public {\n        Details storage request = requestDetails[requestId]; \n        require(request.sender == msg.sender, \"Only sender of existing roll can cancel a bid\");\n        require(request.fulfilled == false, \"Bid already fulfilled\");\n        require(request.cancelled == false, \"Bid already cancelled\");\n        \n        request.cancelled = true;\n        request.sender.transfer(request.bid);\n    }\n}",
  "sourcePath": "/Users/cex/Desktop/Coding/King/3/contracts/KingDice.sol",
  "compiler": {
    "name": "solc",
    "version": "0.6.12+commit.27d51765.Emscripten.clang"
  },
  "schemaVersion": "3.2.0",
  "updatedAt": "2020-09-26T17:56:17.356Z",
  "devdoc": {
    "kind": "dev",
    "methods": {
      "requestRandomness(bytes32,uint256,uint256)": {
        "details": "See \"SECURITY CONSIDERATIONS\" above for more information on _seed.The fulfillRandomness method receives the output, once it's providedby the Oracle, and verified by the vrfCoordinator.The _keyHash must already be registered with the VRFCoordinator, andthe _fee must exceed the fee specified during registration of the_keyHash.The returned requestId can be used to distinguish responses to *concurrent requests. It is passed as the first argument tofulfillRandomness.",
        "params": {
          "_fee": "The amount of LINK to send with the request",
          "_keyHash": "ID of public key against which randomness is generated",
          "_seed": "seed mixed into the input of the VRF"
        },
        "returns": {
          "requestId": "unique ID for this request"
        }
      }
    },
    "version": 1
  },
  "userdoc": {
    "kind": "user",
    "methods": {
      "requestRandomness(bytes32,uint256,uint256)": {
        "notice": "requestRandomness initiates a request for VRF output given _seed"
      }
    },
    "version": 1
  }
}